{
  "contractName": "AmbitionERC721ATestnet",
  "abi": [
    {
      "inputs": [
        {
          "internalType": "string",
          "name": "_name",
          "type": "string"
        },
        {
          "internalType": "string",
          "name": "_symbol",
          "type": "string"
        },
        {
          "internalType": "uint256",
          "name": "_totalSupply",
          "type": "uint256"
        }
      ],
      "stateMutability": "nonpayable",
      "type": "constructor"
    },
    {
      "stateMutability": "payable",
      "type": "fallback"
    },
    {
      "inputs": [],
      "name": "implementation",
      "outputs": [
        {
          "internalType": "address",
          "name": "",
          "type": "address"
        }
      ],
      "stateMutability": "view",
      "type": "function"
    },
    {
      "stateMutability": "payable",
      "type": "receive"
    }
  ],
  "bytecode": "0x60806040523480156200001157600080fd5b5060405162000dae38038062000dae833981810160405281019062000037919062000436565b82828260017f360894a13ba1a3210667c828492db98dca3e2076cc3735a920a3ca505d382bbd60001c6200006c9190620006bb565b60001b7f360894a13ba1a3210667c828492db98dca3e2076cc3735a920a3ca505d382bbc60001b14620000a457620000a36200076c565b5b73b401480c0b65342fa919326ee1440647e4cb7ca2620000f27f360894a13ba1a3210667c828492db98dca3e2076cc3735a920a3ca505d382bbc60001b620001fe60201b6200008f1760201c565b60000160006101000a81548173ffffffffffffffffffffffffffffffffffffffff021916908373ffffffffffffffffffffffffffffffffffffffff160217905550620001f173b401480c0b65342fa919326ee1440647e4cb7ca28484846040516024016200016393929190620005bd565b6040516020818303038152906040527fb119490e000000000000000000000000000000000000000000000000000000007bffffffffffffffffffffffffffffffffffffffffffffffffffffffff19166020820180517bffffffffffffffffffffffffffffffffffffffffffffffffffffffff83818316178352505050506200020860201b620000991760201c565b5050505050505062000887565b6000819050919050565b606062000236838360405180606001604052806027815260200162000d87602791396200023e60201b60201c565b905092915050565b606062000251846200032260201b60201c565b62000293576040517f08c379a00000000000000000000000000000000000000000000000000000000081526004016200028a9062000608565b60405180910390fd5b6000808573ffffffffffffffffffffffffffffffffffffffff1685604051620002bd919062000580565b600060405180830381855af49150503d8060008114620002fa576040519150601f19603f3d011682016040523d82523d6000602084013e620002ff565b606091505b5091509150620003178282866200033560201b60201c565b925050509392505050565b600080823b905060008111915050919050565b6060831562000347578290506200039a565b6000835111156200035b5782518084602001fd5b816040517f08c379a000000000000000000000000000000000000000000000000000000000815260040162000391919062000599565b60405180910390fd5b9392505050565b6000620003b8620003b28462000653565b6200062a565b905082815260208101848484011115620003d757620003d6620007fe565b5b620003e484828562000700565b509392505050565b600082601f830112620004045762000403620007f9565b5b815162000416848260208601620003a1565b91505092915050565b60008151905062000430816200086d565b92915050565b60008060006060848603121562000452576200045162000808565b5b600084015167ffffffffffffffff81111562000473576200047262000803565b5b6200048186828701620003ec565b935050602084015167ffffffffffffffff811115620004a557620004a462000803565b5b620004b386828701620003ec565b9250506040620004c6868287016200041f565b9150509250925092565b6000620004dd8262000689565b620004e981856200069f565b9350620004fb81856020860162000700565b80840191505092915050565b6000620005148262000694565b620005208185620006aa565b93506200053281856020860162000700565b6200053d816200080d565b840191505092915050565b600062000557602683620006aa565b915062000564826200081e565b604082019050919050565b6200057a81620006f6565b82525050565b60006200058e8284620004d0565b915081905092915050565b60006020820190508181036000830152620005b5818462000507565b905092915050565b60006060820190508181036000830152620005d9818662000507565b90508181036020830152620005ef818562000507565b90506200060060408301846200056f565b949350505050565b60006020820190508181036000830152620006238162000548565b9050919050565b60006200063662000649565b905062000644828262000736565b919050565b6000604051905090565b600067ffffffffffffffff821115620006715762000670620007ca565b5b6200067c826200080d565b9050602081019050919050565b600081519050919050565b600081519050919050565b600081905092915050565b600082825260208201905092915050565b6000620006c882620006f6565b9150620006d583620006f6565b925082821015620006eb57620006ea6200079b565b5b828203905092915050565b6000819050919050565b60005b838110156200072057808201518184015260208101905062000703565b8381111562000730576000848401525b50505050565b62000741826200080d565b810181811067ffffffffffffffff82111715620007635762000762620007ca565b5b80604052505050565b7f4e487b7100000000000000000000000000000000000000000000000000000000600052600160045260246000fd5b7f4e487b7100000000000000000000000000000000000000000000000000000000600052601160045260246000fd5b7f4e487b7100000000000000000000000000000000000000000000000000000000600052604160045260246000fd5b600080fd5b600080fd5b600080fd5b600080fd5b6000601f19601f8301169050919050565b7f416464726573733a2064656c65676174652063616c6c20746f206e6f6e2d636f60008201527f6e74726163740000000000000000000000000000000000000000000000000000602082015250565b6200087881620006f6565b81146200088457600080fd5b50565b6104f080620008976000396000f3fe6080604052600436106100225760003560e01c80635c60da1b1461003b57610031565b366100315761002f610066565b005b610039610066565b005b34801561004757600080fd5b50610050610080565b60405161005d919061033f565b60405180910390f35b61006e6100c6565b61007e6100796100c8565b61011f565b565b600061008a6100c8565b905090565b6000819050919050565b60606100be838360405180606001604052806027815260200161049460279139610145565b905092915050565b565b60006100f67f360894a13ba1a3210667c828492db98dca3e2076cc3735a920a3ca505d382bbc60001b61008f565b60000160009054906101000a900473ffffffffffffffffffffffffffffffffffffffff16905090565b3660008037600080366000845af43d6000803e8060008114610140573d6000f35b3d6000fd5b606061015084610212565b61018f576040517f08c379a00000000000000000000000000000000000000000000000000000000081526004016101869061037c565b60405180910390fd5b6000808573ffffffffffffffffffffffffffffffffffffffff16856040516101b79190610328565b600060405180830381855af49150503d80600081146101f2576040519150601f19603f3d011682016040523d82523d6000602084013e6101f7565b606091505b5091509150610207828286610225565b925050509392505050565b600080823b905060008111915050919050565b6060831561023557829050610285565b6000835111156102485782518084602001fd5b816040517f08c379a000000000000000000000000000000000000000000000000000000000815260040161027c919061035a565b60405180910390fd5b9392505050565b610295816103ce565b82525050565b60006102a68261039c565b6102b081856103b2565b93506102c0818560208601610400565b80840191505092915050565b60006102d7826103a7565b6102e181856103bd565b93506102f1818560208601610400565b6102fa81610433565b840191505092915050565b60006103126026836103bd565b915061031d82610444565b604082019050919050565b6000610334828461029b565b915081905092915050565b6000602082019050610354600083018461028c565b92915050565b6000602082019050818103600083015261037481846102cc565b905092915050565b6000602082019050818103600083015261039581610305565b9050919050565b600081519050919050565b600081519050919050565b600081905092915050565b600082825260208201905092915050565b60006103d9826103e0565b9050919050565b600073ffffffffffffffffffffffffffffffffffffffff82169050919050565b60005b8381101561041e578082015181840152602081019050610403565b8381111561042d576000848401525b50505050565b6000601f19601f8301169050919050565b7f416464726573733a2064656c65676174652063616c6c20746f206e6f6e2d636f60008201527f6e7472616374000000000000000000000000000000000000000000000000000060208201525056fe416464726573733a206c6f772d6c6576656c2064656c65676174652063616c6c206661696c6564a2646970667358221220a4ec2864f7eb683c600f32b991c232bbc2b6c6ff03c9fd7d25f99cda6489b29464736f6c63430008070033416464726573733a206c6f772d6c6576656c2064656c65676174652063616c6c206661696c6564",
  "immutableReferences": {},
  "source": "// Sources flattened with hardhat v2.8.3 https://hardhat.org\r\n\r\n// File @openzeppelin/contracts/proxy/Proxy.sol@v4.4.2\r\n\r\n// OpenZeppelin Contracts v4.4.1 (proxy/Proxy.sol)\r\n\r\npragma solidity ^0.8.0;\r\n\r\n/**\r\n * @dev This abstract contract provides a fallback function that delegates all calls to another contract using the EVM\r\n * instruction `delegatecall`. We refer to the second contract as the _implementation_ behind the proxy, and it has to\r\n * be specified by overriding the virtual {_implementation} function.\r\n *\r\n * Additionally, delegation to the implementation can be triggered manually through the {_fallback} function, or to a\r\n * different contract through the {_delegate} function.\r\n *\r\n * The success and return data of the delegated call will be returned back to the caller of the proxy.\r\n */\r\nabstract contract Proxy {\r\n    /**\r\n     * @dev Delegates the current call to `implementation`.\r\n     *\r\n     * This function does not return to its internall call site, it will return directly to the external caller.\r\n     */\r\n    function _delegate(address implementation) internal virtual {\r\n        assembly {\r\n            // Copy msg.data. We take full control of memory in this inline assembly\r\n            // block because it will not return to Solidity code. We overwrite the\r\n            // Solidity scratch pad at memory position 0.\r\n            calldatacopy(0, 0, calldatasize())\r\n\r\n            // Call the implementation.\r\n            // out and outsize are 0 because we don't know the size yet.\r\n            let result := delegatecall(gas(), implementation, 0, calldatasize(), 0, 0)\r\n\r\n            // Copy the returned data.\r\n            returndatacopy(0, 0, returndatasize())\r\n\r\n            switch result\r\n            // delegatecall returns 0 on error.\r\n            case 0 {\r\n                revert(0, returndatasize())\r\n            }\r\n            default {\r\n                return(0, returndatasize())\r\n            }\r\n        }\r\n    }\r\n\r\n    /**\r\n     * @dev This is a virtual function that should be overriden so it returns the address to which the fallback function\r\n     * and {_fallback} should delegate.\r\n     */\r\n    function _implementation() internal view virtual returns (address);\r\n\r\n    /**\r\n     * @dev Delegates the current call to the address returned by `_implementation()`.\r\n     *\r\n     * This function does not return to its internall call site, it will return directly to the external caller.\r\n     */\r\n    function _fallback() internal virtual {\r\n        _beforeFallback();\r\n        _delegate(_implementation());\r\n    }\r\n\r\n    /**\r\n     * @dev Fallback function that delegates calls to the address returned by `_implementation()`. Will run if no other\r\n     * function in the contract matches the call data.\r\n     */\r\n    fallback() external payable virtual {\r\n        _fallback();\r\n    }\r\n\r\n    /**\r\n     * @dev Fallback function that delegates calls to the address returned by `_implementation()`. Will run if call data\r\n     * is empty.\r\n     */\r\n    receive() external payable virtual {\r\n        _fallback();\r\n    }\r\n\r\n    /**\r\n     * @dev Hook that is called before falling back to the implementation. Can happen as part of a manual `_fallback`\r\n     * call, or as part of the Solidity `fallback` or `receive` functions.\r\n     *\r\n     * If overriden should call `super._beforeFallback()`.\r\n     */\r\n    function _beforeFallback() internal virtual {}\r\n}\r\n\r\n\r\n// File @openzeppelin/contracts/utils/Address.sol@v4.4.2\r\n\r\n// OpenZeppelin Contracts v4.4.1 (utils/Address.sol)\r\n\r\npragma solidity ^0.8.0;\r\n\r\n/**\r\n * @dev Collection of functions related to the address type\r\n */\r\nlibrary Address {\r\n    /**\r\n     * @dev Returns true if `account` is a contract.\r\n     *\r\n     * [IMPORTANT]\r\n     * ====\r\n     * It is unsafe to assume that an address for which this function returns\r\n     * false is an externally-owned account (EOA) and not a contract.\r\n     *\r\n     * Among others, `isContract` will return false for the following\r\n     * types of addresses:\r\n     *\r\n     *  - an externally-owned account\r\n     *  - a contract in construction\r\n     *  - an address where a contract will be created\r\n     *  - an address where a contract lived, but was destroyed\r\n     * ====\r\n     */\r\n    function isContract(address account) internal view returns (bool) {\r\n        // This method relies on extcodesize, which returns 0 for contracts in\r\n        // construction, since the code is only stored at the end of the\r\n        // constructor execution.\r\n\r\n        uint256 size;\r\n        assembly {\r\n            size := extcodesize(account)\r\n        }\r\n        return size > 0;\r\n    }\r\n\r\n    /**\r\n     * @dev Replacement for Solidity's `transfer`: sends `amount` wei to\r\n     * `recipient`, forwarding all available gas and reverting on errors.\r\n     *\r\n     * https://eips.ethereum.org/EIPS/eip-1884[EIP1884] increases the gas cost\r\n     * of certain opcodes, possibly making contracts go over the 2300 gas limit\r\n     * imposed by `transfer`, making them unable to receive funds via\r\n     * `transfer`. {sendValue} removes this limitation.\r\n     *\r\n     * https://diligence.consensys.net/posts/2019/09/stop-using-soliditys-transfer-now/[Learn more].\r\n     *\r\n     * IMPORTANT: because control is transferred to `recipient`, care must be\r\n     * taken to not create reentrancy vulnerabilities. Consider using\r\n     * {ReentrancyGuard} or the\r\n     * https://solidity.readthedocs.io/en/v0.5.11/security-considerations.html#use-the-checks-effects-interactions-pattern[checks-effects-interactions pattern].\r\n     */\r\n    function sendValue(address payable recipient, uint256 amount) internal {\r\n        require(address(this).balance >= amount, \"Address: insufficient balance\");\r\n\r\n        (bool success, ) = recipient.call{value: amount}(\"\");\r\n        require(success, \"Address: unable to send value, recipient may have reverted\");\r\n    }\r\n\r\n    /**\r\n     * @dev Performs a Solidity function call using a low level `call`. A\r\n     * plain `call` is an unsafe replacement for a function call: use this\r\n     * function instead.\r\n     *\r\n     * If `target` reverts with a revert reason, it is bubbled up by this\r\n     * function (like regular Solidity function calls).\r\n     *\r\n     * Returns the raw returned data. To convert to the expected return value,\r\n     * use https://solidity.readthedocs.io/en/latest/units-and-global-variables.html?highlight=abi.decode#abi-encoding-and-decoding-functions[`abi.decode`].\r\n     *\r\n     * Requirements:\r\n     *\r\n     * - `target` must be a contract.\r\n     * - calling `target` with `data` must not revert.\r\n     *\r\n     * _Available since v3.1._\r\n     */\r\n    function functionCall(address target, bytes memory data) internal returns (bytes memory) {\r\n        return functionCall(target, data, \"Address: low-level call failed\");\r\n    }\r\n\r\n    /**\r\n     * @dev Same as {xref-Address-functionCall-address-bytes-}[`functionCall`], but with\r\n     * `errorMessage` as a fallback revert reason when `target` reverts.\r\n     *\r\n     * _Available since v3.1._\r\n     */\r\n    function functionCall(\r\n        address target,\r\n        bytes memory data,\r\n        string memory errorMessage\r\n    ) internal returns (bytes memory) {\r\n        return functionCallWithValue(target, data, 0, errorMessage);\r\n    }\r\n\r\n    /**\r\n     * @dev Same as {xref-Address-functionCall-address-bytes-}[`functionCall`],\r\n     * but also transferring `value` wei to `target`.\r\n     *\r\n     * Requirements:\r\n     *\r\n     * - the calling contract must have an ETH balance of at least `value`.\r\n     * - the called Solidity function must be `payable`.\r\n     *\r\n     * _Available since v3.1._\r\n     */\r\n    function functionCallWithValue(\r\n        address target,\r\n        bytes memory data,\r\n        uint256 value\r\n    ) internal returns (bytes memory) {\r\n        return functionCallWithValue(target, data, value, \"Address: low-level call with value failed\");\r\n    }\r\n\r\n    /**\r\n     * @dev Same as {xref-Address-functionCallWithValue-address-bytes-uint256-}[`functionCallWithValue`], but\r\n     * with `errorMessage` as a fallback revert reason when `target` reverts.\r\n     *\r\n     * _Available since v3.1._\r\n     */\r\n    function functionCallWithValue(\r\n        address target,\r\n        bytes memory data,\r\n        uint256 value,\r\n        string memory errorMessage\r\n    ) internal returns (bytes memory) {\r\n        require(address(this).balance >= value, \"Address: insufficient balance for call\");\r\n        require(isContract(target), \"Address: call to non-contract\");\r\n\r\n        (bool success, bytes memory returndata) = target.call{value: value}(data);\r\n        return verifyCallResult(success, returndata, errorMessage);\r\n    }\r\n\r\n    /**\r\n     * @dev Same as {xref-Address-functionCall-address-bytes-}[`functionCall`],\r\n     * but performing a static call.\r\n     *\r\n     * _Available since v3.3._\r\n     */\r\n    function functionStaticCall(address target, bytes memory data) internal view returns (bytes memory) {\r\n        return functionStaticCall(target, data, \"Address: low-level static call failed\");\r\n    }\r\n\r\n    /**\r\n     * @dev Same as {xref-Address-functionCall-address-bytes-string-}[`functionCall`],\r\n     * but performing a static call.\r\n     *\r\n     * _Available since v3.3._\r\n     */\r\n    function functionStaticCall(\r\n        address target,\r\n        bytes memory data,\r\n        string memory errorMessage\r\n    ) internal view returns (bytes memory) {\r\n        require(isContract(target), \"Address: static call to non-contract\");\r\n\r\n        (bool success, bytes memory returndata) = target.staticcall(data);\r\n        return verifyCallResult(success, returndata, errorMessage);\r\n    }\r\n\r\n    /**\r\n     * @dev Same as {xref-Address-functionCall-address-bytes-}[`functionCall`],\r\n     * but performing a delegate call.\r\n     *\r\n     * _Available since v3.4._\r\n     */\r\n    function functionDelegateCall(address target, bytes memory data) internal returns (bytes memory) {\r\n        return functionDelegateCall(target, data, \"Address: low-level delegate call failed\");\r\n    }\r\n\r\n    /**\r\n     * @dev Same as {xref-Address-functionCall-address-bytes-string-}[`functionCall`],\r\n     * but performing a delegate call.\r\n     *\r\n     * _Available since v3.4._\r\n     */\r\n    function functionDelegateCall(\r\n        address target,\r\n        bytes memory data,\r\n        string memory errorMessage\r\n    ) internal returns (bytes memory) {\r\n        require(isContract(target), \"Address: delegate call to non-contract\");\r\n\r\n        (bool success, bytes memory returndata) = target.delegatecall(data);\r\n        return verifyCallResult(success, returndata, errorMessage);\r\n    }\r\n\r\n    /**\r\n     * @dev Tool to verifies that a low level call was successful, and revert if it wasn't, either by bubbling the\r\n     * revert reason using the provided one.\r\n     *\r\n     * _Available since v4.3._\r\n     */\r\n    function verifyCallResult(\r\n        bool success,\r\n        bytes memory returndata,\r\n        string memory errorMessage\r\n    ) internal pure returns (bytes memory) {\r\n        if (success) {\r\n            return returndata;\r\n        } else {\r\n            // Look for revert reason and bubble it up if present\r\n            if (returndata.length > 0) {\r\n                // The easiest way to bubble the revert reason is using memory via assembly\r\n\r\n                assembly {\r\n                    let returndata_size := mload(returndata)\r\n                    revert(add(32, returndata), returndata_size)\r\n                }\r\n            } else {\r\n                revert(errorMessage);\r\n            }\r\n        }\r\n    }\r\n}\r\n\r\n\r\n// File @openzeppelin/contracts/utils/StorageSlot.sol@v4.4.2\r\n\r\n// OpenZeppelin Contracts v4.4.1 (utils/StorageSlot.sol)\r\n\r\npragma solidity ^0.8.0;\r\n\r\n/**\r\n * @dev Library for reading and writing primitive types to specific storage slots.\r\n *\r\n * Storage slots are often used to avoid storage conflict when dealing with upgradeable contracts.\r\n * This library helps with reading and writing to such slots without the need for inline assembly.\r\n *\r\n * The functions in this library return Slot structs that contain a `value` member that can be used to read or write.\r\n *\r\n * Example usage to set ERC1967 implementation slot:\r\n * ```\r\n * contract ERC1967 {\r\n *     bytes32 internal constant _IMPLEMENTATION_SLOT = 0x360894a13ba1a3210667c828492db98dca3e2076cc3735a920a3ca505d382bbc;\r\n *\r\n *     function _getImplementation() internal view returns (address) {\r\n *         return StorageSlot.getAddressSlot(_IMPLEMENTATION_SLOT).value;\r\n *     }\r\n *\r\n *     function _setImplementation(address newImplementation) internal {\r\n *         require(Address.isContract(newImplementation), \"ERC1967: new implementation is not a contract\");\r\n *         StorageSlot.getAddressSlot(_IMPLEMENTATION_SLOT).value = newImplementation;\r\n *     }\r\n * }\r\n * ```\r\n *\r\n * _Available since v4.1 for `address`, `bool`, `bytes32`, and `uint256`._\r\n */\r\nlibrary StorageSlot {\r\n    struct AddressSlot {\r\n        address value;\r\n    }\r\n\r\n    struct BooleanSlot {\r\n        bool value;\r\n    }\r\n\r\n    struct Bytes32Slot {\r\n        bytes32 value;\r\n    }\r\n\r\n    struct Uint256Slot {\r\n        uint256 value;\r\n    }\r\n\r\n    /**\r\n     * @dev Returns an `AddressSlot` with member `value` located at `slot`.\r\n     */\r\n    function getAddressSlot(bytes32 slot) internal pure returns (AddressSlot storage r) {\r\n        assembly {\r\n            r.slot := slot\r\n        }\r\n    }\r\n\r\n    /**\r\n     * @dev Returns an `BooleanSlot` with member `value` located at `slot`.\r\n     */\r\n    function getBooleanSlot(bytes32 slot) internal pure returns (BooleanSlot storage r) {\r\n        assembly {\r\n            r.slot := slot\r\n        }\r\n    }\r\n\r\n    /**\r\n     * @dev Returns an `Bytes32Slot` with member `value` located at `slot`.\r\n     */\r\n    function getBytes32Slot(bytes32 slot) internal pure returns (Bytes32Slot storage r) {\r\n        assembly {\r\n            r.slot := slot\r\n        }\r\n    }\r\n\r\n    /**\r\n     * @dev Returns an `Uint256Slot` with member `value` located at `slot`.\r\n     */\r\n    function getUint256Slot(bytes32 slot) internal pure returns (Uint256Slot storage r) {\r\n        assembly {\r\n            r.slot := slot\r\n        }\r\n    }\r\n}\r\n\r\n\r\n// File contracts/Asd.sol\r\n\r\npragma solidity ^0.8.4;\r\n\r\n\r\n\r\ncontract ERC721ContractWrapper is Proxy {\r\n\t\taddress internal constant _IMPLEMENTATION_ADDRESS = 0xB401480c0b65342fa919326EE1440647E4Cb7cA2;\r\n    bytes32 internal constant _IMPLEMENTATION_SLOT = 0x360894a13ba1a3210667c828492db98dca3e2076cc3735a920a3ca505d382bbc;\r\n\r\n    constructor(\r\n        string memory _name,\r\n        string memory _symbol,\r\n        uint256 _totalSupply\r\n    ) {\r\n        assert(_IMPLEMENTATION_SLOT == bytes32(uint256(keccak256(\"eip1967.proxy.implementation\")) - 1));\r\n        StorageSlot.getAddressSlot(_IMPLEMENTATION_SLOT).value = _IMPLEMENTATION_ADDRESS;\r\n        Address.functionDelegateCall(\r\n            _IMPLEMENTATION_ADDRESS,\r\n            abi.encodeWithSignature(\"initialize(string,string,uint256)\", _name, _symbol, _totalSupply)\r\n        );\r\n    }\r\n    \r\n    /**\r\n     * @dev Returns the current implementation address.\r\n     */\r\n     function implementation() public view returns (address) {\r\n        return _implementation();\r\n    }\r\n\r\n    function _implementation() internal override view returns (address) {\r\n        return StorageSlot.getAddressSlot(_IMPLEMENTATION_SLOT).value;\r\n    }    \r\n}\r\n\r\ncontract AmbitionERC721ATestnet is ERC721ContractWrapper {\r\n  constructor(\r\n    string memory _name,\r\n    string memory _symbol,\r\n    uint256 _totalSupply\r\n  ) ERC721ContractWrapper(_name,_symbol,_totalSupply) {}\r\n}\r\n",
  "sourcePath": "C:\\Users\\steph\\Documents\\projects\\truffle\\contracts\\ambition-proxy-testnet.sol",
  "compiler": {
    "name": "solc",
    "version": "0.8.7+commit.e28d00a7.Emscripten.clang"
  },
  "schemaVersion": "3.4.10",
  "updatedAt": "2022-10-14T03:35:52.302Z",
  "devdoc": {
    "kind": "dev",
    "methods": {
      "implementation()": {
        "details": "Returns the current implementation address."
      }
    },
    "version": 1
  },
  "userdoc": {
    "kind": "user",
    "methods": {},
    "version": 1
  }
}